{
  "contractName": "Transaction",
  "abi": [
    {
      "constant": false,
      "inputs": [
        {
          "name": "receiver",
          "type": "address"
        }
      ],
      "name": "transferFunds",
      "outputs": [],
      "payable": true,
      "stateMutability": "payable",
      "type": "function"
    }
  ],
  "bytecode": "0x608060405234801561001057600080fd5b5060d78061001f6000396000f3fe608060405260043610601c5760003560e01c8063e39ff19f146021575b600080fd5b606060048036036020811015603557600080fd5b81019080803573ffffffffffffffffffffffffffffffffffffffff1690602001909291905050506062565b005b8073ffffffffffffffffffffffffffffffffffffffff166108fc349081150290604051600060405180830381858888f1935050505015801560a7573d6000803e3d6000fd5b505056fea165627a7a72305820243318f3f52766bcc255da099dbc9a7e570fa909014875bd525f525f2d4081050029",
  "source": "pragma solidity ^0.5.5;\n\ncontract Transaction{\n      function transferFunds(address payable receiver) external payable{\n            receiver.transfer(msg.value);\n      }\n      \n}",
  "sourcePath": "/home/palak/portis-react-starter/contract/contracts/Transaction.sol",
  "compiler": {
    "name": "solc",
    "version": "0.5.5+commit.47a71e8f.Emscripten.clang"
  },
  "schemaVersion": "3.3.4",
  "updatedAt": "2021-03-13T13:10:36.558Z",
  "networkType": "ethereum",
  "devdoc": {
    "methods": {}
  },
  "userdoc": {
    "methods": {}
  }
}