{
  "contractName": "Buying",
  "abi": [
    {
      "inputs": [
        {
          "internalType": "uint256",
          "name": "initialSupply",
          "type": "uint256"
        },
        {
          "internalType": "uint256",
          "name": "pricePerToken",
          "type": "uint256"
        }
      ],
      "payable": false,
      "stateMutability": "nonpayable",
      "type": "constructor"
    },
    {
      "anonymous": false,
      "inputs": [
        {
          "indexed": false,
          "internalType": "uint256",
          "name": "from",
          "type": "uint256"
        },
        {
          "indexed": false,
          "internalType": "string",
          "name": "fromName",
          "type": "string"
        },
        {
          "indexed": false,
          "internalType": "uint256",
          "name": "to",
          "type": "uint256"
        },
        {
          "indexed": false,
          "internalType": "string",
          "name": "toName",
          "type": "string"
        },
        {
          "indexed": true,
          "internalType": "uint256",
          "name": "propId",
          "type": "uint256"
        }
      ],
      "name": "Ownership_changed",
      "type": "event"
    },
    {
      "anonymous": false,
      "inputs": [
        {
          "indexed": true,
          "internalType": "uint256",
          "name": "propId",
          "type": "uint256"
        },
        {
          "indexed": false,
          "internalType": "uint256",
          "name": "to",
          "type": "uint256"
        },
        {
          "indexed": false,
          "internalType": "string",
          "name": "name",
          "type": "string"
        }
      ],
      "name": "Ownership_changed_requested",
      "type": "event"
    },
    {
      "anonymous": false,
      "inputs": [
        {
          "indexed": true,
          "internalType": "address",
          "name": "_from",
          "type": "address"
        },
        {
          "indexed": false,
          "internalType": "address",
          "name": "_to",
          "type": "address"
        },
        {
          "indexed": false,
          "internalType": "uint256",
          "name": "_numberOfTokens",
          "type": "uint256"
        }
      ],
      "name": "Transfered",
      "type": "event"
    },
    {
      "anonymous": false,
      "inputs": [
        {
          "indexed": true,
          "internalType": "address",
          "name": "_from",
          "type": "address"
        },
        {
          "indexed": false,
          "internalType": "string",
          "name": "_to",
          "type": "string"
        },
        {
          "indexed": false,
          "internalType": "string",
          "name": "_clientId",
          "type": "string"
        },
        {
          "indexed": false,
          "internalType": "string",
          "name": "_viaEvent",
          "type": "string"
        },
        {
          "indexed": false,
          "internalType": "uint256",
          "name": "_numberOfTokens",
          "type": "uint256"
        }
      ],
      "name": "TransferedToPot",
      "type": "event"
    },
    {
      "anonymous": false,
      "inputs": [
        {
          "indexed": false,
          "internalType": "uint256",
          "name": "propId",
          "type": "uint256"
        },
        {
          "indexed": false,
          "internalType": "string",
          "name": "name",
          "type": "string"
        },
        {
          "indexed": false,
          "internalType": "uint256",
          "name": "cnic",
          "type": "uint256"
        },
        {
          "indexed": false,
          "internalType": "uint256",
          "name": "size",
          "type": "uint256"
        },
        {
          "indexed": false,
          "internalType": "uint256",
          "name": "value",
          "type": "uint256"
        },
        {
          "indexed": false,
          "internalType": "string",
          "name": "date",
          "type": "string"
        }
      ],
      "name": "property_created",
      "type": "event"
    },
    {
      "anonymous": false,
      "inputs": [
        {
          "indexed": false,
          "internalType": "enum Buying.userStatus",
          "name": "",
          "type": "uint8"
        },
        {
          "indexed": false,
          "internalType": "string",
          "name": "name",
          "type": "string"
        },
        {
          "indexed": false,
          "internalType": "uint256",
          "name": "CNIC",
          "type": "uint256"
        },
        {
          "indexed": false,
          "internalType": "uint256",
          "name": "Phone",
          "type": "uint256"
        }
      ],
      "name": "user",
      "type": "event"
    },
    {
      "constant": true,
      "inputs": [
        {
          "internalType": "address",
          "name": "",
          "type": "address"
        }
      ],
      "name": "balanceOf",
      "outputs": [
        {
          "internalType": "uint256",
          "name": "",
          "type": "uint256"
        }
      ],
      "payable": false,
      "stateMutability": "view",
      "type": "function"
    },
    {
      "constant": true,
      "inputs": [
        {
          "internalType": "string",
          "name": "",
          "type": "string"
        }
      ],
      "name": "balanceOfPot",
      "outputs": [
        {
          "internalType": "uint256",
          "name": "",
          "type": "uint256"
        }
      ],
      "payable": false,
      "stateMutability": "view",
      "type": "function"
    },
    {
      "constant": true,
      "inputs": [],
      "name": "count",
      "outputs": [
        {
          "internalType": "uint256",
          "name": "",
          "type": "uint256"
        }
      ],
      "payable": false,
      "stateMutability": "view",
      "type": "function"
    },
    {
      "constant": true,
      "inputs": [],
      "name": "etherAmount",
      "outputs": [
        {
          "internalType": "uint256",
          "name": "",
          "type": "uint256"
        }
      ],
      "payable": false,
      "stateMutability": "view",
      "type": "function"
    },
    {
      "constant": true,
      "inputs": [],
      "name": "name",
      "outputs": [
        {
          "internalType": "string",
          "name": "",
          "type": "string"
        }
      ],
      "payable": false,
      "stateMutability": "view",
      "type": "function"
    },
    {
      "constant": true,
      "inputs": [
        {
          "internalType": "uint256",
          "name": "",
          "type": "uint256"
        }
      ],
      "name": "propOwnerChange",
      "outputs": [
        {
          "internalType": "enum Buying.userStatus",
          "name": "status",
          "type": "uint8"
        },
        {
          "internalType": "string",
          "name": "name",
          "type": "string"
        },
        {
          "internalType": "uint256",
          "name": "CNIC",
          "type": "uint256"
        },
        {
          "internalType": "uint256",
          "name": "Phone",
          "type": "uint256"
        }
      ],
      "payable": false,
      "stateMutability": "view",
      "type": "function"
    },
    {
      "constant": true,
      "inputs": [
        {
          "internalType": "uint256",
          "name": "",
          "type": "uint256"
        }
      ],
      "name": "properties",
      "outputs": [
        {
          "internalType": "string",
          "name": "name",
          "type": "string"
        },
        {
          "internalType": "uint256",
          "name": "CNIC",
          "type": "uint256"
        },
        {
          "internalType": "uint256",
          "name": "size",
          "type": "uint256"
        },
        {
          "internalType": "uint256",
          "name": "value",
          "type": "uint256"
        },
        {
          "internalType": "string",
          "name": "regDate",
          "type": "string"
        }
      ],
      "payable": false,
      "stateMutability": "view",
      "type": "function"
    },
    {
      "constant": true,
      "inputs": [],
      "name": "standard",
      "outputs": [
        {
          "internalType": "string",
          "name": "",
          "type": "string"
        }
      ],
      "payable": false,
      "stateMutability": "view",
      "type": "function"
    },
    {
      "constant": true,
      "inputs": [],
      "name": "symbol",
      "outputs": [
        {
          "internalType": "string",
          "name": "",
          "type": "string"
        }
      ],
      "payable": false,
      "stateMutability": "view",
      "type": "function"
    },
    {
      "constant": true,
      "inputs": [],
      "name": "tokenPrice",
      "outputs": [
        {
          "internalType": "uint256",
          "name": "",
          "type": "uint256"
        }
      ],
      "payable": false,
      "stateMutability": "view",
      "type": "function"
    },
    {
      "constant": true,
      "inputs": [
        {
          "internalType": "uint256",
          "name": "",
          "type": "uint256"
        }
      ],
      "name": "users",
      "outputs": [
        {
          "internalType": "int256",
          "name": "",
          "type": "int256"
        }
      ],
      "payable": false,
      "stateMutability": "view",
      "type": "function"
    },
    {
      "constant": true,
      "inputs": [
        {
          "internalType": "uint256",
          "name": "",
          "type": "uint256"
        }
      ],
      "name": "userslist",
      "outputs": [
        {
          "internalType": "enum Buying.userStatus",
          "name": "status",
          "type": "uint8"
        },
        {
          "internalType": "string",
          "name": "name",
          "type": "string"
        },
        {
          "internalType": "uint256",
          "name": "CNIC",
          "type": "uint256"
        },
        {
          "internalType": "uint256",
          "name": "Phone",
          "type": "uint256"
        }
      ],
      "payable": false,
      "stateMutability": "view",
      "type": "function"
    },
    {
      "constant": true,
      "inputs": [
        {
          "internalType": "uint256",
          "name": "",
          "type": "uint256"
        }
      ],
      "name": "verifiedUsers",
      "outputs": [
        {
          "internalType": "bool",
          "name": "",
          "type": "bool"
        }
      ],
      "payable": false,
      "stateMutability": "view",
      "type": "function"
    },
    {
      "constant": false,
      "inputs": [
        {
          "internalType": "uint256",
          "name": "numberOfTokens",
          "type": "uint256"
        }
      ],
      "name": "buyTokens",
      "outputs": [
        {
          "internalType": "bool",
          "name": "",
          "type": "bool"
        }
      ],
      "payable": true,
      "stateMutability": "payable",
      "type": "function"
    },
    {
      "constant": false,
      "inputs": [
        {
          "internalType": "string",
          "name": "pot",
          "type": "string"
        },
        {
          "internalType": "uint256",
          "name": "numberOfTokens",
          "type": "uint256"
        },
        {
          "internalType": "string",
          "name": "clientId",
          "type": "string"
        },
        {
          "internalType": "string",
          "name": "viaEvent",
          "type": "string"
        }
      ],
      "name": "transfer",
      "outputs": [
        {
          "internalType": "bool",
          "name": "",
          "type": "bool"
        }
      ],
      "payable": false,
      "stateMutability": "nonpayable",
      "type": "function"
    },
    {
      "constant": false,
      "inputs": [
        {
          "internalType": "address",
          "name": "from",
          "type": "address"
        },
        {
          "internalType": "address",
          "name": "to",
          "type": "address"
        },
        {
          "internalType": "uint256",
          "name": "amt",
          "type": "uint256"
        }
      ],
      "name": "myTransfer",
      "outputs": [
        {
          "internalType": "bool",
          "name": "",
          "type": "bool"
        }
      ],
      "payable": false,
      "stateMutability": "nonpayable",
      "type": "function"
    },
    {
      "constant": false,
      "inputs": [
        {
          "internalType": "string",
          "name": "pot",
          "type": "string"
        },
        {
          "internalType": "address",
          "name": "to",
          "type": "address"
        }
      ],
      "name": "winnerTransfer",
      "outputs": [
        {
          "internalType": "bool",
          "name": "",
          "type": "bool"
        }
      ],
      "payable": false,
      "stateMutability": "nonpayable",
      "type": "function"
    },
    {
      "constant": false,
      "inputs": [
        {
          "internalType": "string",
          "name": "pot",
          "type": "string"
        },
        {
          "internalType": "address",
          "name": "to1",
          "type": "address"
        },
        {
          "internalType": "address",
          "name": "to2",
          "type": "address"
        }
      ],
      "name": "winnerTransferTie",
      "outputs": [
        {
          "internalType": "bool",
          "name": "",
          "type": "bool"
        }
      ],
      "payable": false,
      "stateMutability": "nonpayable",
      "type": "function"
    },
    {
      "constant": true,
      "inputs": [],
      "name": "getBalance",
      "outputs": [
        {
          "internalType": "uint256",
          "name": "",
          "type": "uint256"
        }
      ],
      "payable": false,
      "stateMutability": "view",
      "type": "function"
    },
    {
      "constant": true,
      "inputs": [
        {
          "internalType": "address",
          "name": "id",
          "type": "address"
        }
      ],
      "name": "getBalanceOther",
      "outputs": [
        {
          "internalType": "uint256",
          "name": "",
          "type": "uint256"
        }
      ],
      "payable": false,
      "stateMutability": "view",
      "type": "function"
    },
    {
      "constant": true,
      "inputs": [
        {
          "internalType": "string",
          "name": "id",
          "type": "string"
        }
      ],
      "name": "getBalancePot",
      "outputs": [
        {
          "internalType": "uint256",
          "name": "",
          "type": "uint256"
        }
      ],
      "payable": false,
      "stateMutability": "view",
      "type": "function"
    },
    {
      "constant": true,
      "inputs": [],
      "name": "getContractBalance",
      "outputs": [
        {
          "internalType": "uint256",
          "name": "",
          "type": "uint256"
        }
      ],
      "payable": false,
      "stateMutability": "view",
      "type": "function"
    },
    {
      "constant": false,
      "inputs": [],
      "name": "sendContractAmountToOwner",
      "outputs": [],
      "payable": true,
      "stateMutability": "payable",
      "type": "function"
    },
    {
      "constant": false,
      "inputs": [
        {
          "internalType": "uint256",
          "name": "_propId",
          "type": "uint256"
        },
        {
          "internalType": "uint256",
          "name": "_cnic",
          "type": "uint256"
        },
        {
          "internalType": "uint256",
          "name": "_size",
          "type": "uint256"
        },
        {
          "internalType": "uint256",
          "name": "_value",
          "type": "uint256"
        },
        {
          "internalType": "string",
          "name": "_regDate",
          "type": "string"
        }
      ],
      "name": "createProperty",
      "outputs": [
        {
          "internalType": "bool",
          "name": "",
          "type": "bool"
        }
      ],
      "payable": false,
      "stateMutability": "nonpayable",
      "type": "function"
    },
    {
      "constant": false,
      "inputs": [
        {
          "internalType": "uint256",
          "name": "_propId",
          "type": "uint256"
        },
        {
          "internalType": "uint256",
          "name": "_NewCnic",
          "type": "uint256"
        }
      ],
      "name": "changeOwnership",
      "outputs": [
        {
          "internalType": "bool",
          "name": "",
          "type": "bool"
        }
      ],
      "payable": false,
      "stateMutability": "nonpayable",
      "type": "function"
    },
    {
      "constant": false,
      "inputs": [
        {
          "internalType": "uint256",
          "name": "_propId",
          "type": "uint256"
        }
      ],
      "name": "approveChangeOwnership",
      "outputs": [
        {
          "internalType": "bool",
          "name": "",
          "type": "bool"
        }
      ],
      "payable": false,
      "stateMutability": "nonpayable",
      "type": "function"
    },
    {
      "constant": false,
      "inputs": [
        {
          "internalType": "uint256",
          "name": "_propId",
          "type": "uint256"
        }
      ],
      "name": "rejectChangeOwnership",
      "outputs": [
        {
          "internalType": "bool",
          "name": "",
          "type": "bool"
        }
      ],
      "payable": false,
      "stateMutability": "nonpayable",
      "type": "function"
    },
    {
      "constant": false,
      "inputs": [
        {
          "internalType": "uint256",
          "name": "_propId",
          "type": "uint256"
        },
        {
          "internalType": "uint256",
          "name": "_newValue",
          "type": "uint256"
        }
      ],
      "name": "changeValue",
      "outputs": [
        {
          "internalType": "bool",
          "name": "",
          "type": "bool"
        }
      ],
      "payable": false,
      "stateMutability": "nonpayable",
      "type": "function"
    },
    {
      "constant": true,
      "inputs": [
        {
          "internalType": "uint256",
          "name": "_propId",
          "type": "uint256"
        }
      ],
      "name": "getPropertyDetails",
      "outputs": [
        {
          "internalType": "string",
          "name": "",
          "type": "string"
        },
        {
          "internalType": "uint256",
          "name": "",
          "type": "uint256"
        },
        {
          "internalType": "uint256",
          "name": "",
          "type": "uint256"
        },
        {
          "internalType": "uint256",
          "name": "",
          "type": "uint256"
        },
        {
          "internalType": "string",
          "name": "",
          "type": "string"
        }
      ],
      "payable": false,
      "stateMutability": "view",
      "type": "function"
    },
    {
      "constant": true,
      "inputs": [
        {
          "internalType": "uint256",
          "name": "_cnic",
          "type": "uint256"
        }
      ],
      "name": "getUserDetails",
      "outputs": [
        {
          "internalType": "string",
          "name": "",
          "type": "string"
        },
        {
          "internalType": "uint256",
          "name": "",
          "type": "uint256"
        },
        {
          "internalType": "uint256",
          "name": "",
          "type": "uint256"
        },
        {
          "internalType": "enum Buying.userStatus",
          "name": "",
          "type": "uint8"
        }
      ],
      "payable": false,
      "stateMutability": "view",
      "type": "function"
    },
    {
      "constant": false,
      "inputs": [
        {
          "internalType": "string",
          "name": "_name",
          "type": "string"
        },
        {
          "internalType": "uint256",
          "name": "_CNIC",
          "type": "uint256"
        },
        {
          "internalType": "uint256",
          "name": "_Phone",
          "type": "uint256"
        }
      ],
      "name": "addNewUser",
      "outputs": [
        {
          "internalType": "bool",
          "name": "",
          "type": "bool"
        }
      ],
      "payable": false,
      "stateMutability": "nonpayable",
      "type": "function"
    },
    {
      "constant": false,
      "inputs": [
        {
          "internalType": "uint256",
          "name": "_CNIC",
          "type": "uint256"
        }
      ],
      "name": "approveUsers",
      "outputs": [
        {
          "internalType": "bool",
          "name": "",
          "type": "bool"
        }
      ],
      "payable": false,
      "stateMutability": "nonpayable",
      "type": "function"
    }
  ],
  "bytecode": "0x60806040526040518060400160405280600581526020017f43484950530000000000000000000000000000000000000000000000000000008152506000908051906020019062000051929190620001fb565b506040518060400160405280600381526020017f4348500000000000000000000000000000000000000000000000000000000000815250600190805190602001906200009f929190620001fb565b506040518060400160405280600a81526020017f43484950532076312e300000000000000000000000000000000000000000000081525060029080519060200190620000ed929190620001fb565b50348015620000fb57600080fd5b506040516200380638038062003806833981810160405260408110156200012157600080fd5b81019080805190602001909291908051906020019092919050505033600660006101000a81548173ffffffffffffffffffffffffffffffffffffffff021916908373ffffffffffffffffffffffffffffffffffffffff1602179055508160038190555060035460076000600660009054906101000a900473ffffffffffffffffffffffffffffffffffffffff1673ffffffffffffffffffffffffffffffffffffffff1673ffffffffffffffffffffffffffffffffffffffff16815260200190815260200160002081905550806004819055505050620002aa565b828054600181600116156101000203166002900490600052602060002090601f016020900481019282601f106200023e57805160ff19168380011785556200026f565b828001600101855582156200026f579182015b828111156200026e57825182559160200191906001019062000251565b5b5090506200027e919062000282565b5090565b620002a791905b80821115620002a357600081600090555060010162000289565b5090565b90565b61354c80620002ba6000396000f3fe6080604052600436106101e35760003560e01c80635bc5b0c71161010257806395d89b4111610095578063eeb294e211610064578063eeb294e21461123d578063f7b1080814611290578063fadcf140146113c5578063fc4d01da146114b9576101e3565b806395d89b4114610f235780639c4ea46a14610fb35780639e1ae6b51461108a578063b29623d214611161576101e3565b80637ff9b596116100d15780637ff9b59614610d4057806381eb674c14610d6b5780638709b2e714610dbe5780638fe7750514610e1b576101e3565b80635bc5b0c714610b4b5780636f5eeb4e14610bb05780636f9fb98a14610cb057806370a0823114610cdb576101e3565b80632f21c99a1161017a5780633a10839e116101495780633a10839e1461079c5780634935ce6f146108785780635a3b7e42146108a35780635b5e2e5714610933576101e3565b80632f21c99a146105dd578063328e456d146105e75780633610724e14610707578063365b98b21461074d576101e3565b806312065fe0116101b657806312065fe014610349578063126dbe4314610374578063147944ed146104a95780631c1a9f7b14610506576101e3565b806305cf4332146101e857806306661abd1461023b57806306fdde031461026657806307763ec3146102f6575b600080fd5b3480156101f457600080fd5b506102216004803603602081101561020b57600080fd5b810190808035906020019092919050505061154c565b604051808215151515815260200191505060405180910390f35b34801561024757600080fd5b5061025061156e565b6040518082815260200191505060405180910390f35b34801561027257600080fd5b5061027b611574565b6040518080602001828103825283818151815260200191508051906020019080838360005b838110156102bb5780820151818401526020810190506102a0565b50505050905090810190601f1680156102e85780820380516001836020036101000a031916815260200191505b509250505060405180910390f35b34801561030257600080fd5b5061032f6004803603602081101561031957600080fd5b8101908080359060200190929190505050611612565b604051808215151515815260200191505060405180910390f35b34801561035557600080fd5b5061035e611632565b6040518082815260200191505060405180910390f35b34801561038057600080fd5b506103ad6004803603602081101561039757600080fd5b8101908080359060200190929190505050611679565b604051808060200186815260200185815260200184815260200180602001838103835288818151815260200191508051906020019080838360005b838110156104035780820151818401526020810190506103e8565b50505050905090810190601f1680156104305780820380516001836020036101000a031916815260200191505b50838103825284818151815260200191508051906020019080838360005b8381101561046957808201518184015260208101905061044e565b50505050905090810190601f1680156104965780820380516001836020036101000a031916815260200191505b5097505050505050505060405180910390f35b3480156104b557600080fd5b506104ec600480360360408110156104cc57600080fd5b81019080803590602001909291908035906020019092919050505061183e565b604051808215151515815260200191505060405180910390f35b34801561051257600080fd5b5061053f6004803603602081101561052957600080fd5b81019080803590602001909291905050506119fa565b604051808060200185815260200184815260200183600281111561055f57fe5b60ff168152602001828103825286818151815260200191508051906020019080838360005b8381101561059f578082015181840152602081019050610584565b50505050905090810190601f1680156105cc5780820380516001836020036101000a031916815260200191505b509550505050505060405180910390f35b6105e5611b14565b005b3480156105f357600080fd5b506106ed6004803603606081101561060a57600080fd5b810190808035906020019064010000000081111561062757600080fd5b82018360208201111561063957600080fd5b8035906020019184600183028401116401000000008311171561065b57600080fd5b91908080601f016020809104026020016040519081016040528093929190818152602001838380828437600081840152601f19601f820116905080830192505050505050509192919290803573ffffffffffffffffffffffffffffffffffffffff169060200190929190803573ffffffffffffffffffffffffffffffffffffffff169060200190929190505050611bd9565b604051808215151515815260200191505060405180910390f35b6107336004803603602081101561071d57600080fd5b8101908080359060200190929190505050611de6565b604051808215151515815260200191505060405180910390f35b34801561075957600080fd5b506107866004803603602081101561077057600080fd5b8101908080359060200190929190505050611fd9565b6040518082815260200191505060405180910390f35b3480156107a857600080fd5b50610862600480360360208110156107bf57600080fd5b81019080803590602001906401000000008111156107dc57600080fd5b8201836020820111156107ee57600080fd5b8035906020019184600183028401116401000000008311171561081057600080fd5b91908080601f016020809104026020016040519081016040528093929190818152602001838380828437600081840152601f19601f820116905080830192505050505050509192919290505050611ff1565b6040518082815260200191505060405180910390f35b34801561088457600080fd5b5061088d612064565b6040518082815260200191505060405180910390f35b3480156108af57600080fd5b506108b861206a565b6040518080602001828103825283818151815260200191508051906020019080838360005b838110156108f85780820151818401526020810190506108dd565b50505050905090810190601f1680156109255780820380516001836020036101000a031916815260200191505b509250505060405180910390f35b34801561093f57600080fd5b50610b316004803603608081101561095657600080fd5b810190808035906020019064010000000081111561097357600080fd5b82018360208201111561098557600080fd5b803590602001918460018302840111640100000000831117156109a757600080fd5b91908080601f016020809104026020016040519081016040528093929190818152602001838380828437600081840152601f19601f8201169050808301925050505050505091929192908035906020019092919080359060200190640100000000811115610a1457600080fd5b820183602082011115610a2657600080fd5b80359060200191846001830284011164010000000083111715610a4857600080fd5b91908080601f016020809104026020016040519081016040528093929190818152602001838380828437600081840152601f19601f82011690508083019250505050505050919291929080359060200190640100000000811115610aab57600080fd5b820183602082011115610abd57600080fd5b80359060200191846001830284011164010000000083111715610adf57600080fd5b91908080601f016020809104026020016040519081016040528093929190818152602001838380828437600081840152601f19601f820116905080830192505050505050509192919290505050612108565b604051808215151515815260200191505060405180910390f35b348015610b5757600080fd5b50610b9a60048036036020811015610b6e57600080fd5b81019080803573ffffffffffffffffffffffffffffffffffffffff169060200190929190505050612424565b6040518082815260200191505060405180910390f35b348015610bbc57600080fd5b50610c9660048036036040811015610bd357600080fd5b8101908080359060200190640100000000811115610bf057600080fd5b820183602082011115610c0257600080fd5b80359060200191846001830284011164010000000083111715610c2457600080fd5b91908080601f016020809104026020016040519081016040528093929190818152602001838380828437600081840152601f19601f820116905080830192505050505050509192919290803573ffffffffffffffffffffffffffffffffffffffff16906020019092919050505061246d565b604051808215151515815260200191505060405180910390f35b348015610cbc57600080fd5b50610cc56125ab565b6040518082815260200191505060405180910390f35b348015610ce757600080fd5b50610d2a60048036036020811015610cfe57600080fd5b81019080803573ffffffffffffffffffffffffffffffffffffffff1690602001909291905050506125b5565b6040518082815260200191505060405180910390f35b348015610d4c57600080fd5b50610d556125cd565b6040518082815260200191505060405180910390f35b348015610d7757600080fd5b50610da460048036036020811015610d8e57600080fd5b81019080803590602001909291905050506125d3565b604051808215151515815260200191505060405180910390f35b348015610dca57600080fd5b50610e0160048036036040811015610de157600080fd5b81019080803590602001909291908035906020019092919050505061262a565b604051808215151515815260200191505060405180910390f35b348015610e2757600080fd5b50610f09600480360360a0811015610e3e57600080fd5b810190808035906020019092919080359060200190929190803590602001909291908035906020019092919080359060200190640100000000811115610e8357600080fd5b820183602082011115610e9557600080fd5b80359060200191846001830284011164010000000083111715610eb757600080fd5b91908080601f016020809104026020016040519081016040528093929190818152602001838380828437600081840152601f19601f820116905080830192505050505050509192919290505050612673565b604051808215151515815260200191505060405180910390f35b348015610f2f57600080fd5b50610f38612920565b6040518080602001828103825283818151815260200191508051906020019080838360005b83811015610f78578082015181840152602081019050610f5d565b50505050905090810190601f168015610fa55780820380516001836020036101000a031916815260200191505b509250505060405180910390f35b348015610fbf57600080fd5b50610fec60048036036020811015610fd657600080fd5b81019080803590602001909291905050506129be565b60405180856002811115610ffc57fe5b60ff16815260200180602001848152602001838152602001828103825285818151815260200191508051906020019080838360005b8381101561104c578082015181840152602081019050611031565b50505050905090810190601f1680156110795780820380516001836020036101000a031916815260200191505b509550505050505060405180910390f35b34801561109657600080fd5b506110c3600480360360208110156110ad57600080fd5b8101908080359060200190929190505050612a93565b604051808560028111156110d357fe5b60ff16815260200180602001848152602001838152602001828103825285818151815260200191508051906020019080838360005b83811015611123578082015181840152602081019050611108565b50505050905090810190601f1680156111505780820380516001836020036101000a031916815260200191505b509550505050505060405180910390f35b34801561116d57600080fd5b506112276004803603602081101561118457600080fd5b81019080803590602001906401000000008111156111a157600080fd5b8201836020820111156111b357600080fd5b803590602001918460018302840111640100000000831117156111d557600080fd5b91908080601f016020809104026020016040519081016040528093929190818152602001838380828437600081840152601f19601f820116905080830192505050505050509192919290505050612b68565b6040518082815260200191505060405180910390f35b34801561124957600080fd5b506112766004803603602081101561126057600080fd5b8101908080359060200190929190505050612b96565b604051808215151515815260200191505060405180910390f35b34801561129c57600080fd5b506112c9600480360360208110156112b357600080fd5b8101908080359060200190929190505050612f17565b604051808060200186815260200185815260200184815260200180602001838103835288818151815260200191508051906020019080838360005b8381101561131f578082015181840152602081019050611304565b50505050905090810190601f16801561134c5780820380516001836020036101000a031916815260200191505b50838103825284818151815260200191508051906020019080838360005b8381101561138557808201518184015260208101905061136a565b50505050905090810190601f1680156113b25780820380516001836020036101000a031916815260200191505b5097505050505050505060405180910390f35b3480156113d157600080fd5b5061149f600480360360608110156113e857600080fd5b810190808035906020019064010000000081111561140557600080fd5b82018360208201111561141757600080fd5b8035906020019184600183028401116401000000008311171561143957600080fd5b91908080601f016020809104026020016040519081016040528093929190818152602001838380828437600081840152601f19601f820116905080830192505050505050509192919290803590602001909291908035906020019092919050505061307d565b604051808215151515815260200191505060405180910390f35b3480156114c557600080fd5b50611532600480360360608110156114dc57600080fd5b81019080803573ffffffffffffffffffffffffffffffffffffffff169060200190929190803573ffffffffffffffffffffffffffffffffffffffff16906020019092919080359060200190929190505050613253565b604051808215151515815260200191505060405180910390f35b600080600a600084815260200190815260200160002060020181905550919050565b600e5481565b60008054600181600116156101000203166002900480601f01602080910402602001604051908101604052809291908181526020018280546001816001161561010002031660029004801561160a5780601f106115df5761010080835404028352916020019161160a565b820191906000526020600020905b8154815290600101906020018083116115ed57829003601f168201915b505050505081565b600d6020528060005260406000206000915054906101000a900460ff1681565b6000600760003373ffffffffffffffffffffffffffffffffffffffff1673ffffffffffffffffffffffffffffffffffffffff16815260200190815260200160002054905090565b6060600080600060606009600087815260200190815260200160002060000160096000888152602001908152602001600020600101546009600089815260200190815260200160002060020154600960008a815260200190815260200160002060030154600960008b8152602001908152602001600020600401848054600181600116156101000203166002900480601f0160208091040260200160405190810160405280929190818152602001828054600181600116156101000203166002900480156117885780601f1061175d57610100808354040283529160200191611788565b820191906000526020600020905b81548152906001019060200180831161176b57829003601f168201915b50505050509450808054600181600116156101000203166002900480601f0160208091040260200160405190810160405280929190818152602001828054600181600116156101000203166002900480156118245780601f106117f957610100808354040283529160200191611824565b820191906000526020600020905b81548152906001019060200180831161180757829003601f168201915b505050505090509450945094509450945091939590929450565b600081600d600082815260200190815260200160002060009054906101000a900460ff1661186b57600080fd5b826009600086815260200190815260200160002060010154141561188e57600080fd5b6000600a600086815260200190815260200160002060020154146118b157600080fd5b82600a600086815260200190815260200160002060020181905550600b6000848152602001908152602001600020600101600a60008681526020019081526020016000206001019080546001816001161561010002031660029004611917929190613396565b50837f30ed706ce61c49b0c86951c4a362119743dca2a62fba8858143973f6f70d198c84600a600088815260200190815260200160002060010160405180838152602001806020018281038252838181546001816001161561010002031660029004815260200191508054600181600116156101000203166002900480156119e05780601f106119b5576101008083540402835291602001916119e0565b820191906000526020600020905b8154815290600101906020018083116119c357829003601f168201915b5050935050505060405180910390a2600191505092915050565b60606000806000600b6000868152602001908152602001600020600101600b600087815260200190815260200160002060020154600b600088815260200190815260200160002060030154600b600089815260200190815260200160002060000160009054906101000a900460ff16838054600181600116156101000203166002900480601f016020809104026020016040519081016040528092919081815260200182805460018160011615610100020316600290048015611afe5780601f10611ad357610100808354040283529160200191611afe565b820191906000526020600020905b815481529060010190602001808311611ae157829003601f168201915b5050505050935093509350935093509193509193565b600660009054906101000a900473ffffffffffffffffffffffffffffffffffffffff1673ffffffffffffffffffffffffffffffffffffffff163373ffffffffffffffffffffffffffffffffffffffff1614611b6e57600080fd5b600660009054906101000a900473ffffffffffffffffffffffffffffffffffffffff1673ffffffffffffffffffffffffffffffffffffffff166108fc479081150290604051600060405180830381858888f19350505050158015611bd6573d6000803e3d6000fd5b50565b60008060026008866040518082805190602001908083835b60208310611c145780518252602082019150602081019050602083039250611bf1565b6001836020036101000a03801982511681845116808217855250505050505090500191505090815260200160405180910390205481611c4f57fe5b049050806008866040518082805190602001908083835b60208310611c895780518252602082019150602081019050602083039250611c66565b6001836020036101000a03801982511681845116808217855250505050505090500191505090815260200160405180910390206000828254039250508190555080600760008673ffffffffffffffffffffffffffffffffffffffff1673ffffffffffffffffffffffffffffffffffffffff16815260200190815260200160002060008282540192505081905550806008866040518082805190602001908083835b60208310611d4d5780518252602082019150602081019050602083039250611d2a565b6001836020036101000a03801982511681845116808217855250505050505090500191505090815260200160405180910390206000828254039250508190555080600760008573ffffffffffffffffffffffffffffffffffffffff1673ffffffffffffffffffffffffffffffffffffffff1681526020019081526020016000206000828254019250508190555060019150509392505050565b6000611df48260045461336a565b3414611e4b576040517f08c379a00000000000000000000000000000000000000000000000000000000081526004018080602001828103825260308152602001806134e86030913960400191505060405180910390fd5b8160076000600660009054906101000a900473ffffffffffffffffffffffffffffffffffffffff1673ffffffffffffffffffffffffffffffffffffffff1673ffffffffffffffffffffffffffffffffffffffff1681526020019081526020016000205411611f04576040517f08c379a00000000000000000000000000000000000000000000000000000000081526004018080602001828103825260258152602001806134c36025913960400191505060405180910390fd5b8160076000600660009054906101000a900473ffffffffffffffffffffffffffffffffffffffff1673ffffffffffffffffffffffffffffffffffffffff1673ffffffffffffffffffffffffffffffffffffffff1681526020019081526020016000206000828254039250508190555081600760003373ffffffffffffffffffffffffffffffffffffffff1673ffffffffffffffffffffffffffffffffffffffff168152602001908152602001600020600082825401925050819055503460056000828254019250508190555060019050919050565b600c6020528060005260406000206000915090505481565b60006008826040518082805190602001908083835b602083106120295780518252602082019150602081019050602083039250612006565b6001836020036101000a0380198251168184511680821785525050505050509050019150509081526020016040518091039020549050919050565b60055481565b60028054600181600116156101000203166002900480601f0160208091040260200160405190810160405280929190818152602001828054600181600116156101000203166002900480156121005780601f106120d557610100808354040283529160200191612100565b820191906000526020600020905b8154815290600101906020018083116120e357829003601f168201915b505050505081565b600083600760003373ffffffffffffffffffffffffffffffffffffffff1673ffffffffffffffffffffffffffffffffffffffff1681526020019081526020016000205410156121bf576040517f08c379a00000000000000000000000000000000000000000000000000000000081526004018080602001828103825260148152602001807f496e73756666696369656e742062616c616e636500000000000000000000000081525060200191505060405180910390fd5b83600760003373ffffffffffffffffffffffffffffffffffffffff1673ffffffffffffffffffffffffffffffffffffffff16815260200190815260200160002060008282540392505081905550836008866040518082805190602001908083835b602083106122435780518252602082019150602081019050602083039250612220565b6001836020036101000a0380198251168184511680821785525050505050509050019150509081526020016040518091039020600082825401925050819055503373ffffffffffffffffffffffffffffffffffffffff167f683d0ec3071b51e4b611daeb8e92bd34e69cd02e71aeba1b51f4d3cdcacf9af88685858860405180806020018060200180602001858152602001848103845288818151815260200191508051906020019080838360005b8381101561230d5780820151818401526020810190506122f2565b50505050905090810190601f16801561233a5780820380516001836020036101000a031916815260200191505b50848103835287818151815260200191508051906020019080838360005b83811015612373578082015181840152602081019050612358565b50505050905090810190601f1680156123a05780820380516001836020036101000a031916815260200191505b50848103825286818151815260200191508051906020019080838360005b838110156123d95780820151818401526020810190506123be565b50505050905090810190601f1680156124065780820380516001836020036101000a031916815260200191505b5097505050505050505060405180910390a260019050949350505050565b6000600760008373ffffffffffffffffffffffffffffffffffffffff1673ffffffffffffffffffffffffffffffffffffffff168152602001908152602001600020549050919050565b6000806008846040518082805190602001908083835b602083106124a65780518252602082019150602081019050602083039250612483565b6001836020036101000a0380198251168184511680821785525050505050509050019150509081526020016040518091039020549050806008856040518082805190602001908083835b6020831061251357805182526020820191506020810190506020830392506124f0565b6001836020036101000a03801982511681845116808217855250505050505090500191505090815260200160405180910390206000828254039250508190555080600760008573ffffffffffffffffffffffffffffffffffffffff1673ffffffffffffffffffffffffffffffffffffffff16815260200190815260200160002060008282540192505081905550600191505092915050565b6000600554905090565b60076020528060005260406000206000915090505481565b60045481565b600080600c60008481526020019081526020016000205414156125f557600080fd5b6001600d600084815260200190815260200160002060006101000a81548160ff02191690831515021790555060019050919050565b600080600a6000858152602001908152602001600020600201541461264e57600080fd5b8160096000858152602001908152602001600020600301819055506001905092915050565b600084600d600082815260200190815260200160002060009054906101000a900460ff166126a057600080fd5b6060600b60008881526020019081526020016000206001018054600181600116156101000203166002900480601f01602080910402602001604051908101604052809291908181526020018280546001816001161561010002031660029004801561274c5780601f106127215761010080835404028352916020019161274c565b820191906000526020600020905b81548152906001019060200180831161272f57829003601f168201915b505050505090506040518060a0016040528082815260200188815260200187815260200186815260200185815250600960008a815260200190815260200160002060008201518160000190805190602001906127a992919061341d565b5060208201518160010155604082015181600201556060820151816003015560808201518160040190805190602001906127e492919061341d565b509050507f036ebb4fa56b71b368743356169d9aeee98204502dec5e80cc6432a72e1bc227888289898989604051808781526020018060200186815260200185815260200184815260200180602001838103835288818151815260200191508051906020019080838360005b8381101561286b578082015181840152602081019050612850565b50505050905090810190601f1680156128985780820380516001836020036101000a031916815260200191505b50838103825284818151815260200191508051906020019080838360005b838110156128d15780820151818401526020810190506128b6565b50505050905090810190601f1680156128fe5780820380516001836020036101000a031916815260200191505b509850505050505050505060405180910390a160019250505095945050505050565b60018054600181600116156101000203166002900480601f0160208091040260200160405190810160405280929190818152602001828054600181600116156101000203166002900480156129b65780601f1061298b576101008083540402835291602001916129b6565b820191906000526020600020905b81548152906001019060200180831161299957829003601f168201915b505050505081565b600a6020528060005260406000206000915090508060000160009054906101000a900460ff1690806001018054600181600116156101000203166002900480601f016020809104026020016040519081016040528092919081815260200182805460018160011615610100020316600290048015612a7d5780601f10612a5257610100808354040283529160200191612a7d565b820191906000526020600020905b815481529060010190602001808311612a6057829003601f168201915b5050505050908060020154908060030154905084565b600b6020528060005260406000206000915090508060000160009054906101000a900460ff1690806001018054600181600116156101000203166002900480601f016020809104026020016040519081016040528092919081815260200182805460018160011615610100020316600290048015612b525780601f10612b2757610100808354040283529160200191612b52565b820191906000526020600020905b815481529060010190602001808311612b3557829003601f168201915b5050505050908060020154908060030154905084565b6008818051602081018201805184825260208301602085012081835280955050505050506000915090505481565b600080600a6000848152602001908152602001600020600201541415612bbb57600080fd5b6000600960008481526020019081526020016000206001015490506060600960008581526020019081526020016000206000018054600181600116156101000203166002900480601f016020809104026020016040519081016040528092919081815260200182805460018160011615610100020316600290048015612c825780601f10612c5757610100808354040283529160200191612c82565b820191906000526020600020905b815481529060010190602001808311612c6557829003601f168201915b50505050509050600a6000858152602001908152602001600020600201546009600086815260200190815260200160002060010181905550600a6000858152602001908152602001600020600101600960008681526020019081526020016000206000019080546001816001161561010002031660029004612d05929190613396565b506000600a60008681526020019081526020016000206002015490506060600a60008781526020019081526020016000206001018054600181600116156101000203166002900480601f016020809104026020016040519081016040528092919081815260200182805460018160011615610100020316600290048015612dcd5780601f10612da257610100808354040283529160200191612dcd565b820191906000526020600020905b815481529060010190602001808311612db057829003601f168201915b505050505090506000600a600088815260200190815260200160002060020181905550857ff272ff432844320c06395e1b274898fa00db3fb984de1b064cc0d092ed8c412b85858585604051808581526020018060200184815260200180602001838103835286818151815260200191508051906020019080838360005b83811015612e66578082015181840152602081019050612e4b565b50505050905090810190601f168015612e935780820380516001836020036101000a031916815260200191505b50838103825284818151815260200191508051906020019080838360005b83811015612ecc578082015181840152602081019050612eb1565b50505050905090810190601f168015612ef95780820380516001836020036101000a031916815260200191505b50965050505050505060405180910390a26001945050505050919050565b6009602052806000526040600020600091509050806000018054600181600116156101000203166002900480601f016020809104026020016040519081016040528092919081815260200182805460018160011615610100020316600290048015612fc35780601f10612f9857610100808354040283529160200191612fc3565b820191906000526020600020905b815481529060010190602001808311612fa657829003601f168201915b505050505090806001015490806002015490806003015490806004018054600181600116156101000203166002900480601f0160208091040260200160405190810160405280929190818152602001828054600181600116156101000203166002900480156130735780601f1061304857610100808354040283529160200191613073565b820191906000526020600020905b81548152906001019060200180831161305657829003601f168201915b5050505050905085565b600080600c6000858152602001908152602001600020541461309e57600080fd5b60001515600d600085815260200190815260200160002060009054906101000a900460ff161515146130cf57600080fd5b6001600c60008581526020019081526020016000208190555060405180608001604052806001600281111561310057fe5b815260200185815260200184815260200183815250600b600085815260200190815260200160002060008201518160000160006101000a81548160ff0219169083600281111561314c57fe5b0217905550602082015181600101908051906020019061316d92919061341d565b5060408201518160020155606082015181600301559050507fba75a322a2e175068585280c50d4c9d01723ebefcba33bb82d2ae545d9e6b51e6001858585604051808560028111156131bb57fe5b60ff16815260200180602001848152602001838152602001828103825285818151815260200191508051906020019080838360005b8381101561320b5780820151818401526020810190506131f0565b50505050905090810190601f1680156132385780820380516001836020036101000a031916815260200191505b509550505050505060405180910390a1600190509392505050565b600081600760008673ffffffffffffffffffffffffffffffffffffffff1673ffffffffffffffffffffffffffffffffffffffff1681526020019081526020016000205403600760008673ffffffffffffffffffffffffffffffffffffffff1673ffffffffffffffffffffffffffffffffffffffff1681526020019081526020016000208190555081600760008573ffffffffffffffffffffffffffffffffffffffff1673ffffffffffffffffffffffffffffffffffffffff1681526020019081526020016000205401600760008573ffffffffffffffffffffffffffffffffffffffff1673ffffffffffffffffffffffffffffffffffffffff16815260200190815260200160002081905550600190509392505050565b600080821480613387575082828385029250828161338457fe5b04145b61339057600080fd5b92915050565b828054600181600116156101000203166002900490600052602060002090601f016020900481019282601f106133cf578054855561340c565b8280016001018555821561340c57600052602060002091601f016020900482015b8281111561340b5782548255916001019190600101906133f0565b5b509050613419919061349d565b5090565b828054600181600116156101000203166002900490600052602060002090601f016020900481019282601f1061345e57805160ff191683800117855561348c565b8280016001018555821561348c579182015b8281111561348b578251825591602001919060010190613470565b5b509050613499919061349d565b5090565b6134bf91905b808211156134bb5760008160009055506001016134a3565b5090565b9056fe496e73756666696369656e74204c697175696469747920666f72207468697320746f6b656e496e73756666696369656e7420657468657220666f7220726571756972656420616d6f756e74206f6620746f6b656e73a265627a7a7231582052c0144148a86c5a0f184bcd5b5a7173df60eef302ddd0556f1c7bf406c0390a64736f6c63430005100032",
  "source": "\n\npragma solidity ^0.5.0;\n\ncontract Buying {\n\n   enum Status { NotExist, Pending, Approved, Rejected }\n\tenum userStatus { NotExist, Pending, Approved }\n\n   string  public name = \"CHIPS\";\n    string  public symbol = \"CHP\";\n    string  public standard = \"CHIPS v1.0\";\n    \n    uint256 private totalSupply;\n    uint256 public tokenPrice;\n    uint256 public etherAmount;\n    address payable owner;\n\nstruct PropertyDetail {\n    string name;\n    // address currOwner;\n    uint CNIC;\n    uint size;\n    uint value;\n    string regDate;\n}\n\nstruct UserDetail {\n        userStatus status;\n        string name;\n        // address add;\n        uint CNIC;\n        uint Phone;\n}\n \n// address to balance\n    mapping (address => uint256) public balanceOf;\n    \n    // pot to balance\n    mapping (string => uint256) public balanceOfPot;\n// Dictionary of all the properties, mapped using their { propertyId: PropertyDetail } pair.\nmapping(uint => PropertyDetail) public properties;\nmapping(uint => UserDetail) public propOwnerChange;\n    mapping(uint => UserDetail) public userslist;\n    mapping(uint => int) public users;\n    mapping(uint => bool) public verifiedUsers;\n\n    uint256 public count;\n    \n    event Transfered(\n        address indexed _from,\n        address _to,\n        uint256 _numberOfTokens\n    );\n    \n    event TransferedToPot(\n        address indexed _from,\n        string _to,\n        string _clientId,\n        string _viaEvent,\n        uint256 _numberOfTokens\n    );\n   \n    constructor (uint256 initialSupply,uint256 pricePerToken) public {\n        owner = msg.sender;\n        totalSupply = initialSupply;\n        balanceOf[owner] = totalSupply;\n        tokenPrice = pricePerToken;\n    }\n\n    modifier onlyOwner(uint _propId) {\n// require(properties[_propId].CNIC == msg.sender);\n_;\n}\nmodifier verifiedUser(uint _cnic) {\n   require(verifiedUsers[_cnic]);\n   _;\n}\n\n// Create a new Property.\nevent property_created (\nuint propId,string name, uint cnic, uint size,uint value, string date\n);\n\nfunction multiply(uint x, uint y) internal pure returns (uint z) {\n        require(y == 0 || (z = x * y) / y == x);\n    }\n    \n    function buyTokens(uint256 numberOfTokens) public payable returns (bool){\n        \n        require(msg.value == multiply(numberOfTokens, tokenPrice),\"Insufficient ether for required amount of tokens\");\n        \n        require(balanceOf[owner] > numberOfTokens,\"Insufficient Liquidity for this token\");\n\n        balanceOf[owner] -= numberOfTokens;\n\n        balanceOf[msg.sender] += numberOfTokens;    \n        \n        etherAmount += msg.value;\n\n        return true;\n    }\n\n    function transfer(string memory pot, uint256 numberOfTokens,string memory clientId,string memory viaEvent) public returns (bool){\n        \n        require(balanceOf[msg.sender] >= numberOfTokens,\"Insufficient balance\");\n\n        balanceOf[msg.sender] -= numberOfTokens;\n    \n        balanceOfPot[pot] += numberOfTokens;\n\n        emit TransferedToPot(msg.sender, pot,clientId,viaEvent,numberOfTokens);\n\n        return true;\n    }\n\n\n   function myTransfer(address from, address to, uint256 amt) public returns (bool){\n      balanceOf[from] = balanceOf[from]-amt;\n      balanceOf[to] = balanceOf[to] + amt;\n      return true;\n   }\n    \n    function winnerTransfer(string memory pot,address to) public returns (bool){\n        \n        uint256 numberOfTokens=balanceOfPot[pot];\n        \n        balanceOfPot[pot]-=numberOfTokens;\n        \n        balanceOf[to]+=numberOfTokens;\n\n        return true;\n    }\n\n    function winnerTransferTie(string memory pot,address to1,address to2) public returns (bool){\n        \n        uint256 numberOfTokens=balanceOfPot[pot]/2;\n        \n        balanceOfPot[pot]-=numberOfTokens;\n        \n        balanceOf[to1]+=numberOfTokens;\n\n        balanceOfPot[pot]-=numberOfTokens;\n        \n        balanceOf[to2]+=numberOfTokens;\n        \n        return true;\n    }\n\n    function getBalance() public view returns (uint256) {\n        return balanceOf[msg.sender];\n    }\n\n    function getBalanceOther(address id) public view returns (uint256) {\n        return balanceOf[id];\n    }\n    \n    function getBalancePot(string memory id) public view returns (uint256) {\n        return balanceOfPot[id];\n    }\n    \n    function getContractBalance() public view returns (uint256) {\n        return etherAmount;\n    }\n    \n    function sendContractAmountToOwner() public payable {\n        require(msg.sender == owner);\n        owner.transfer(address(this).balance);\n    }\n\n\nfunction createProperty(uint _propId, uint _cnic, uint _size, uint _value, string memory _regDate)\npublic verifiedUser(_cnic) returns (bool) {\nstring memory name = userslist[_cnic].name;\n// uint cnic = userslist[_currOwner].CNIC;\nproperties[_propId] = PropertyDetail(name,  _cnic, _size, _value, _regDate);\nemit property_created(_propId, name, _cnic, _size, _value, _regDate);\nreturn true;\n}\n\nevent Ownership_changed_requested (\n   uint indexed propId,\nuint to,\nstring name\n);\n\n// Request Change of Ownership.\nfunction changeOwnership(uint _propId, uint _NewCnic)public verifiedUser(_NewCnic) returns (bool) {\nrequire(properties[_propId].CNIC != _NewCnic);\nrequire(propOwnerChange[_propId].CNIC == 0);\npropOwnerChange[_propId].CNIC = _NewCnic;\npropOwnerChange[_propId].name = userslist[_NewCnic].name;\n// propOwnerChange[_propId].CNIC = userslist[_newOwner].CNIC;\nemit Ownership_changed_requested(_propId, _NewCnic, propOwnerChange[_propId].name);\nreturn true;\n}\n\nevent Ownership_changed (\nuint from,\nstring fromName,\nuint to,\nstring toName,\nuint indexed propId\n\n);\n\n// Approve chage in Onwership.\nfunction approveChangeOwnership(uint _propId) public returns (bool) {\n   require(propOwnerChange[_propId].CNIC != 0);\n\n   uint from = properties[_propId].CNIC;\n   string memory fromName = properties[_propId].name;\n //  uint fromCnic = properties[_propId].CNIC;\n    //key\n   properties[_propId].CNIC = propOwnerChange[_propId].CNIC;\n   properties[_propId].name = propOwnerChange[_propId].name;\n\n   uint to = propOwnerChange[_propId].CNIC;\n   string memory toName = propOwnerChange[_propId].name;\n//   uint toCnic = propOwnerChange[_propId].CNIC;\n   \n   propOwnerChange[_propId].CNIC = 0;\n   emit Ownership_changed(from, fromName, to, toName, _propId );\n   return true;\n}\n\n    function rejectChangeOwnership(uint _propId)public returns (bool) {\npropOwnerChange[_propId].CNIC = 0 ;\n\n}\n\n    function changeValue(uint _propId, uint _newValue)public returns (bool) {\n        require(propOwnerChange[_propId].CNIC == 0);\n        properties[_propId].value = _newValue;\n        return true;\n    }\n\n// Get the property details.\nfunction getPropertyDetails(uint _propId)public view returns (string memory, uint, uint, uint, string memory) {\nreturn (properties[_propId].name, properties[_propId].CNIC, properties[_propId].size, properties[_propId].value, properties[_propId].regDate);\n}\n\n// Get the user details.\nfunction getUserDetails(uint _cnic)public view returns (string memory, uint, uint, userStatus) {\nreturn (userslist[_cnic].name, userslist[_cnic].CNIC,\nuserslist[_cnic].Phone, userslist[_cnic].status);\n}\n\nevent user (\n       userStatus,\nstring name,\nuint CNIC,\nuint Phone\n);\n\n\n// Add new user.\nfunction addNewUser(string memory _name, uint _CNIC, uint _Phone)public returns (bool) {\n   require(users[_CNIC] == 0);\n   require(verifiedUsers[_CNIC] == false);\n   users[_CNIC] = 1;\n   userslist[_CNIC] = UserDetail(userStatus.Pending ,_name, _CNIC, _Phone);\n   emit user(userStatus.Pending ,_name, _CNIC, _Phone);\n   return true;\n}\n\n// Approve User.\nfunction approveUsers(uint _CNIC)public returns(bool){\n   require(users[_CNIC] != 0);\n   verifiedUsers[_CNIC] = true;\n   return true;\n}\n\n}\n",
  "sourcePath": "/home/palak/Decentralized-3-patti/Backend/contracts/Buying.sol",
  "compiler": {
    "name": "solc",
    "version": "0.5.16+commit.9c3226ce.Emscripten.clang"
  },
  "schemaVersion": "3.3.4",
  "updatedAt": "2021-03-12T18:19:20.907Z",
  "devdoc": {
    "methods": {}
  },
  "userdoc": {
    "methods": {}
  }
}